:100000000C9446000C9465000C9465000C946500FB
:100010000C9465000C9465000C9465000C946500CC
:100020000C9465000C9465000C9465000C946500BC
:100030000C9465000C9444030C9465000C946500CA
:100040000C9465000C9465000C9465000C9465009C
:100050000C9465000C9465000C9465000C9465008C
:100060000C9465000C9465000C9465000C9465007C
:100070000C9465000C9465000C9465000C9465006C
:100080000C9465000C9465000C94650011241FBE4F
:10009000CFEFD0E4DEBFCDBF11E0A0E0B1E0EEEDE8
:1000A000FFE000E00BBF02C007900D92A634B1073D
:1000B000D9F721E0A6E4B1E001C01D92AD35B20749
:1000C000E1F70E9418060C94A8070C940000CF9347
:1000D000DF93CDB7DEB781E00E948E000000DF9194
:1000E000CF910895CF93DF93CDB7DEB784E690E04C
:1000F0000E94330188E30E948E0086E00E948E00F9
:100100008FE00E948E0081E00E948E008AE090E0E5
:100110000E9433010000DF91CF910895CF93DF93C8
:100120000F92CDB7DEB789838BE290E0FC0120818E
:100130008BE290E02F7BFC01208382E290E029811A
:10014000FC0120838BE290E0FC0120818BE290E0B7
:100150002068FC01208300008BE290E0FC012081FC
:100160008BE290E02F77FC01208382E090E00E94F8
:10017000330100000F90DF91CF910895CF93DF936B
:100180000F92CDB7DEB789838BE290E0FC0120812E
:100190008BE290E02064FC01208382E290E02981E0
:1001A000FC0120838BE290E0FC0120818BE290E057
:1001B0002068FC01208300008BE290E0FC0120819C
:1001C0008BE290E02F77FC01208381E090E00E9499
:1001D000330100000F90DF91CF910895CF93DF930B
:1001E00000D000D0CDB7DEB78A837C836B830E94BA
:1001F00067008A81898311C0898191E0980F998372
:100200000E941C018B819C819C012F5F3F4F3C838E
:100210002B83FC0180810E94BE008B819C81FC01AC
:100220008081882349F7000000000F900F900F9005
:100230000F90DF91CF910895CF93DF930F92CDB7B9
:10024000DEB789838981813128F4898181580E94B0
:100250008E0004C0898181550E948E0000000F909D
:10026000DF91CF910895CF93DF9300D000D000D0DD
:10027000CDB7DEB79E838D831A82198213C01C828C
:100280001B8206C000008B819C8101969C838B831E
:100290008B819C8187309340ACF389819A81019650
:1002A0009A83898329813A818D819E812817390714
:1002B00034F30000000026960FB6F894DEBF0FBEA0
:1002C000CDBFDF91CF910895CF93DF9300D00F92F0
:1002D000CDB7DEB789837B836A8389818A3031F425
:1002E0008A819B81BC018DE00E94640180EC90E0DA
:1002F000FC018081882F90E080729927892BB1F3CF
:1003000086EC90E02981FC01208380E090E00F9052
:100310000F900F90DF91CF910895CF93DF9300D08E
:100320000F92CDB7DEB789836A834B838B81882395
:1003300071F08A81282F30E081E090E002C0880FC0
:10034000991F2A95E2F7982F8981892B0EC08A81FF
:10035000282F30E081E090E002C0880F991F2A9595
:10036000E2F7982F9095898189230F900F900F9035
:10037000DF91CF910895CF93DF9300D0CDB7DEB753
:1003800089836A838A81282F30E081E090E002C06F
:10039000880F991F2A95E2F7982F898189230F905A
:1003A0000F90DF91CF9108950F931F93CF93DF9319
:1003B000CDB7DEB708E210E040E064E08FEF0E94C6
:1003C0008D01F8018083000086E290E0FC018081CD
:1003D000809560E00E94BB01882311F081E3D3C0C7
:1003E00086E290E0FC018081809561E00E94BB0183
:1003F000882311F084E3C7C086E290E0FC0180818D
:10040000809562E00E94BB01882311F087E3BBC0A6
:1004100086E290E0FC018081809563E00E94BB0150
:10042000882311F08AE2AFC008E210E040E065E006
:100430008FEF0E948D01F8018083000086E290E03A
:10044000FC018081809560E00E94BB01882311F04F
:1004500082E399C086E290E0FC018081809561E0B2
:100460000E94BB01882311F085E38DC086E290E0F5
:10047000FC018081809562E00E94BB01882311F01D
:1004800088E381C086E290E0FC018081809563E092
:100490000E94BB01882311F080E375C008E210E0E0
:1004A00040E066E08FEF0E948D01F801808300003C
:1004B00086E290E0FC018081809560E00E94BB01B3
:1004C000882311F083E35FC086E290E0FC01808125
:1004D000809561E00E94BB01882311F086E353C040
:1004E00086E290E0FC018081809562E00E94BB0181
:1004F000882311F089E347C086E290E0FC01808107
:10050000809563E00E94BB01882311F083E23BC029
:1005100008E210E040E067E08FEF0E948D01F801F3
:100520008083000086E290E0FC018081809560E09D
:100530000E94BB01882311F081E425C086E290E08F
:10054000FC018081809561E00E94BB01882311F04D
:1005500082E419C086E290E0FC018081809562E02F
:100560000E94BB01882311F083E40DC086E290E075
:10057000FC018081809563E00E94BB01882311F01B
:1005800084E401C080E0DF91CF911F910F91089525
:10059000CF93DF9300D000D0CDB7DEB769837A83E5
:1005A0008B839C8389819A81AB81BC8180930E016E
:1005B00090930F01A0931001B093110180910E014F
:1005C00090910F01A0911001B0911101809347010A
:1005D00090934801A0934901B0934A0100000F9005
:1005E0000F900F900F90DF91CF910895CF93DF93ED
:1005F000CDB7DEB781E890E02BE0FC01208388E8EE
:1006000090E02DE730E0FC01318320838FE690E01D
:1006100022E0FC01208384E890E0FC01118210823A
:1006200080910E0190910F01A0911001B0911101E4
:100630008093470190934801A0934901B0934A01E8
:100640008FE590E0FC0120818FE590E02068FC01BF
:1006500020830000DF91CF910895CF93DF93CDB732
:10066000DEB781E890E0FC0110820000DF91CF91BD
:100670000895CF93DF93CDB7DEB781E08093460135
:100680000000DF91CF9108951F920F920FB60F9245
:1006900011240BB60F922F933F934F935F936F9359
:1006A0007F938F939F93AF93BF93EF93FF93CF93DA
:1006B000DF93CDB7DEB78091470190914801A091BB
:1006C0004901B0914A010197A109B10980934701FD
:1006D00090934801A0934901B0934A01809147014A
:1006E00090914801A0914901B0914A01892B8A2B30
:1006F0008B2B91F40E94390380910E0190910F0190
:10070000A0911001B091110180934701909348018D
:10071000A0934901B0934A010000DF91CF91FF916E
:10072000EF91BF91AF919F918F917F916F915F9169
:100730004F913F912F910F900BBE0F900FBE0F90D6
:100740001F9018950F931F93CF93DF93CDB7DEB70C
:1007500068970FB6F894DEBF0FBECDBF6D837E8362
:100760008F83988729873A874B875C878D819E8105
:10077000AF81B885898B9A8BAB8BBC8B09851A8529
:100780002B853C8569897A898B899C89A901980187
:100790000E947D076D8B7E8B8F8B988F8D899E89B4
:1007A000AF89B88D89839A83AB83BC8389819A8111
:1007B000AB81BC81892B8A2B8B2B29F489859A8567
:1007C000AB85BC8511C089859A85AB85BC858D8339
:1007D0009E83AF83B88789819A81AB81BC818987E9
:1007E0009A87AB87BC87C2CF8D879E87AF87B88B30
:1007F0006D857E858F85988968960FB6F894DEBFE3
:100800000FBECDBFDF91CF911F910F910895CF9370
:10081000DF9300D00F92CDB7DEB79B838A8383E24C
:1008200090E0FC018081882F90E08170992721E081
:10083000892B09F020E029838A819B810297E1F0CE
:100840008A819B81039714F58A819B81892B29F0EA
:100850008A819B81019759F019C081E0998191307B
:1008600009F080E0882F90E09B838A8312C082E0A9
:1008700090E09B838A830DC081E09981992309F4DC
:1008800080E0882F90E09B838A8303C01B821A82BA
:1008900000008A819B810297A9F08A819B8103973E
:1008A000A4F48A819B81892B79F08A819B810197AD
:1008B00061F490914D0181E0992309F080E08093EB
:1008C0004D0103C0000001C000008A819B810F9090
:1008D0000F900F90DF91CF910895CF93DF9300D0C9
:1008E000CDB7DEB79A83898389819A81892B29F0D4
:1008F00089819A81019761F016C090914D0181E044
:10090000992309F080E0882F90E09A8389830EC0B4
:1009100090914D0181E0992309F080E0882F90E0CB
:100920009A83898303C01A821982000089819A817F
:10093000892B69F089819A81019751F490914B013B
:1009400081E0992309F080E080934B0101C0000011
:1009500089819A810F900F90DF91CF910895CF9365
:10096000DF9300D0CDB7DEB79A83898389819A81DE
:10097000892B29F089819A81019761F016C09091A5
:100980004D0181E0992309F080E0882F90E09A835F
:1009900089830EC090914D0181E0992309F080E098
:1009A000882F90E09A83898303C01A8219820000FD
:1009B00089819A81892B69F089819A81019751F403
:1009C00090914C0181E0992309F080E080934C01E3
:1009D00001C0000089819A810F900F90DF91CF9123
:1009E0000895CF93DF9300D00F92CDB7DEB79B83EE
:1009F0008A838A819B81892B19F41B821A8203C006
:100A00001B821A8200008A819B81892B61F480916C
:100A10004C01882F90E0880F991F982F80914B01EF
:100A2000892B8983000085E290E02981FC012083E5
:100A30008A819B810F900F900F90DF91CF91089545
:100A4000CF93DF9300D0CDB7DEB79A8389838981B6
:100A50009A81892B19F41A82198203C01A82198289
:100A6000000089819A81892B09F082C00E94D401FB
:100A700080935A0180915A01882F90E0092E000C32
:100A8000AA0BBB0B85349105A105B10508F06AC01E
:100A90008655984FFC010C949F0785E290E02FE16A
:100AA000FC01208365C085E290E021E0FC01208309
:100AB0005FC085E290E022E0FC01208359C085E21E
:100AC00090E023E0FC01208353C085E290E024E025
:100AD000FC0120834DC085E290E025E0FC012083ED
:100AE00047C085E290E026E0FC01208341C085E21A
:100AF00090E027E0FC0120833BC085E290E028E005
:100B0000FC01208335C085E290E029E0FC012083D0
:100B10002FC085E290E02AE0FC01208329C085E215
:100B200090E02BE0FC01208323C085E290E02CE0E4
:100B3000FC0120831DC085E290E02DE0FC012083B4
:100B400017C085E290E02EE0FC01208311C085E211
:100B500090E0FC0110820CC085E290E02FE0FC01E7
:100B6000208306C085E290E02BE1FC012083000099
:100B7000000089819A810F900F90DF91CF910895A5
:100B8000CF93DF9300D0CDB7DEB79A838983898175
:100B90009A81892B19F41A82198203C01A82198248
:100BA000000089819A81892BD9F581E080935901D0
:100BB00029C080915901882F90E00E941C018091EA
:100BC0005901282F30E080915B0190915C01820FE8
:100BD000931F8E5E9E4FFC018081882F90E00E94C3
:100BE000BE0080915B0190915C01C39731F410923B
:100BF0005C0110925B010E946700809159018F5F38
:100C00008093590180915901813198F280915B0163
:100C100090915C01019690935C0180935B0101C00F
:100C2000000089819A810F900F90DF91CF910895F4
:100C3000CF93DF93CDB7DEB769970FB6F894DEBFD9
:100C40000FBECDBF81E290E02FEFDC012C9382E25A
:100C500090E0FC01108284E290E02FEFDC012C9305
:100C600085E290E0FC0110828AE290E02FEFDC0147
:100C70002C938BE290E0FC0110828EE491E09D8742
:100C80008C8781E090E09A8789878FEF8B878B85AF
:100C900080934E018AEF90E0A0E0B0E080934F0196
:100CA00090935001A0935101B093520180914F0154
:100CB00090915001A0915101B09152018093530144
:100CC00090935401A0935501B093560180EC95E0A8
:100CD00090935801809357018C859D85FC018181FB
:100CE0009281A381B48189839A83AB83BC8381E0A1
:100CF00090E09E838D8333C08D819E81880F991FE4
:100D00009E012F5F3F4F820F931F0B96DC018D9149
:100D10009C91FC0181819281A381B48129813A81D6
:100D20004B815C812E873F87488B598B9C01AD019D
:100D30006E857F85888999890E94A2036A8B7B8B47
:100D40008C8B9D8B8A899B89AC89BD8989839A8389
:100D5000AB83BC838D819E8101969E838D832D8183
:100D60003E8189859A852817390730F229813A8191
:100D70004B815C812E8B3F8B488F598F6E897F8989
:100D8000888D998D0E94C8020E94F6020E9472000E
:100D900018861F82A2C08F819885880F991F9E0197
:100DA0002F5F3F4F820F931F0B96DC018D919C911B
:100DB000FC0145815681678170858F819885880FF8
:100DC000991F9E012F5F3F4F820F931F0B96DC01EF
:100DD0008D919C91FC0181819281A381B4814817FE
:100DE00059076A077B0709F047C08F819885880FEC
:100DF000991F9E012F5F3F4F820F931F0B96DC01BF
:100E00008D919C91FC01218532858F819885880F79
:100E1000991FAE014F5F5F4F840F951F0B96DC014A
:100E20008D919C91FC018081082E000C990BF90199
:100E30000995AC018F819885880F991F9E012F5FBE
:100E40003F4F820F931F0B96DC018D919C91242FB5
:100E5000FC0120838F819885880F991F9E012F5F49
:100E60003F4F820F931F0B96DC018D919C91FC01EB
:100E700015821682178210868F819885880F991F98
:100E80009E012F5F3F4F820F931F0B96DC018D91C8
:100E90009C91FC0145815681678170858F81988581
:100EA000880F991F9E012F5F3F4F820F931F0B9654
:100EB000DC012D913C9189819A81AB81BC81840FA9
:100EC000951FA61FB71FF90185839683A783B08757
:100ED0008F819885019698878F832F8138858985A2
:100EE0009A852817390708F456CF000080914601EB
:100EF0008823E1F3109246014BCFA1E21A2EAA1BE0
:100F0000BB1BFD010DC0AA1FBB1FEE1FFF1FA217B9
:100F1000B307E407F50720F0A21BB30BE40BF50BB6
:100F2000661F771F881F991F1A9469F7609570953F
:100F3000809590959B01AC01BD01CF010895EE0F06
:100F4000FF1F0024001C0BBE0790F691E02D0994B2
:100F5000F894FFCF4D05B205B205B205B205B20552
:100F6000B205B205B205B205B205B205B205B205C9
:100F7000B205B205B205B205B205B205B205B205B9
:100F8000B205B205B205B205B205B205B205B205A9
:100F9000B205B205B205B205B205AC05B205B2059F
:100FA000B205B205B205B205A105B205B205B2059A
:100FB000B205B205A705530559055F0565056B0523
:100FC000710577057D058305B205B205B205B20549
:0E0FD000B205B205B20589058F0595059B0592
:100FDE00000000020000000064010000000001009B
:100FEE000000202020202020202020202020202033
:100FFE00435331323042206973204C6567656E640D
:10100E002E2E2E207761697420666F7220697420EF
:06101E004441525921007B
:00000001FF
