:100000000C9446000C9465000C9465000C946500FB
:100010000C9465000C9465000C9465000C946500CC
:100020000C9465000C9465000C9465000C946500BC
:100030000C9465000C9444030C9465000C946500CA
:100040000C9465000C9465000C9465000C9465009C
:100050000C9465000C9465000C9465000C9465008C
:100060000C9465000C9465000C9465000C9465007C
:100070000C9465000C9465000C9465000C9465006C
:100080000C9465000C9465000C94650011241FBE4F
:10009000CFEFD0E4DEBFCDBF11E0A0E0B1E0ECE5F2
:1000A000FDE000E00BBF02C007900D92A231B10746
:1000B000D9F721E0A2E1B1E001C01D92A632B2075A
:1000C000E1F70E94CD040C9467060C940000CF93D6
:1000D000DF93CDB7DEB781E00E948E000000DF9194
:1000E000CF910895CF93DF93CDB7DEB784E690E04C
:1000F0000E94330188E30E948E0086E00E948E00F9
:100100008FE00E948E0081E00E948E008AE090E0E5
:100110000E9433010000DF91CF910895CF93DF93C8
:100120000F92CDB7DEB789838BE290E0FC0120818E
:100130008BE290E02F7BFC01208382E290E029811A
:10014000FC0120838BE290E0FC0120818BE290E0B7
:100150002068FC01208300008BE290E0FC012081FC
:100160008BE290E02F77FC01208382E090E00E94F8
:10017000330100000F90DF91CF910895CF93DF936B
:100180000F92CDB7DEB789838BE290E0FC0120812E
:100190008BE290E02064FC01208382E290E02981E0
:1001A000FC0120838BE290E0FC0120818BE290E057
:1001B0002068FC01208300008BE290E0FC0120819C
:1001C0008BE290E02F77FC01208381E090E00E9499
:1001D000330100000F90DF91CF910895CF93DF930B
:1001E00000D000D0CDB7DEB78A837C836B830E94BA
:1001F00067008A81898311C0898191E0980F998372
:100200000E941C018B819C819C012F5F3F4F3C838E
:100210002B83FC0180810E94BE008B819C81FC01AC
:100220008081882349F7000000000F900F900F9005
:100230000F90DF91CF910895CF93DF930F92CDB7B9
:10024000DEB789838981813128F4898181580E94B0
:100250008E0004C0898181550E948E0000000F909D
:10026000DF91CF910895CF93DF9300D000D000D0DD
:10027000CDB7DEB79E838D831A82198213C01C828C
:100280001B8206C000008B819C8101969C838B831E
:100290008B819C8187309340ACF389819A81019650
:1002A0009A83898329813A818D819E812817390714
:1002B00034F30000000026960FB6F894DEBF0FBEA0
:1002C000CDBFDF91CF910895CF93DF9300D00F92F0
:1002D000CDB7DEB789837B836A8389818A3031F425
:1002E0008A819B81BC018DE00E94640180EC90E0DA
:1002F000FC018081882F90E080729927892BB1F3CF
:1003000086EC90E02981FC01208380E090E00F9052
:100310000F900F90DF91CF910895CF93DF9300D08E
:100320000F92CDB7DEB789836A834B838B81882395
:1003300071F08A81282F30E081E090E002C0880FC0
:10034000991F2A95E2F7982F8981892B0EC08A81FF
:10035000282F30E081E090E002C0880F991F2A9595
:10036000E2F7982F9095898189230F900F900F9035
:10037000DF91CF910895CF93DF9300D0CDB7DEB753
:1003800089836A838A81282F30E081E090E002C06F
:10039000880F991F2A95E2F7982F898189230F905A
:1003A0000F90DF91CF9108950F931F93CF93DF9319
:1003B000CDB7DEB708E210E040E064E08FEF0E94C6
:1003C0008D01F8018083000086E290E0FC018081CD
:1003D000809560E00E94BB01882311F081E3D3C0C7
:1003E00086E290E0FC018081809561E00E94BB0183
:1003F000882311F084E3C7C086E290E0FC0180818D
:10040000809562E00E94BB01882311F087E3BBC0A6
:1004100086E290E0FC018081809563E00E94BB0150
:10042000882311F08AE2AFC008E210E040E065E006
:100430008FEF0E948D01F8018083000086E290E03A
:10044000FC018081809560E00E94BB01882311F04F
:1004500082E399C086E290E0FC018081809561E0B2
:100460000E94BB01882311F085E38DC086E290E0F5
:10047000FC018081809562E00E94BB01882311F01D
:1004800088E381C086E290E0FC018081809563E092
:100490000E94BB01882311F080E375C008E210E0E0
:1004A00040E066E08FEF0E948D01F801808300003C
:1004B00086E290E0FC018081809560E00E94BB01B3
:1004C000882311F083E35FC086E290E0FC01808125
:1004D000809561E00E94BB01882311F086E353C040
:1004E00086E290E0FC018081809562E00E94BB0181
:1004F000882311F089E347C086E290E0FC01808107
:10050000809563E00E94BB01882311F083E23BC029
:1005100008E210E040E067E08FEF0E948D01F801F3
:100520008083000086E290E0FC018081809560E09D
:100530000E94BB01882311F081E425C086E290E08F
:10054000FC018081809561E00E94BB01882311F04D
:1005500082E419C086E290E0FC018081809562E02F
:100560000E94BB01882311F083E40DC086E290E075
:10057000FC018081809563E00E94BB01882311F01B
:1005800084E401C080E0DF91CF911F910F91089525
:10059000CF93DF9300D000D0CDB7DEB769837A83E5
:1005A0008B839C8389819A81AB81BC8180930E016E
:1005B00090930F01A0931001B093110180910E014F
:1005C00090910F01A0911001B0911101809313013E
:1005D00090931401A0931501B093160100000F90A1
:1005E0000F900F900F90DF91CF910895CF93DF93ED
:1005F000CDB7DEB781E890E02BE0FC01208388E8EE
:1006000090E02DE730E0FC01318320838FE690E01D
:1006100022E0FC01208384E890E0FC01118210823A
:1006200080910E0190910F01A0911001B0911101E4
:100630008093130190931401A0931501B0931601B8
:100640008FE590E0FC0120818FE590E02068FC01BF
:1006500020830000DF91CF910895CF93DF93CDB732
:10066000DEB781E890E0FC0110820000DF91CF91BD
:100670000895CF93DF93CDB7DEB781E08093120169
:100680000000DF91CF9108951F920F920FB60F9245
:1006900011240BB60F922F933F934F935F936F9359
:1006A0007F938F939F93AF93BF93EF93FF93CF93DA
:1006B000DF93CDB7DEB78091130190911401A09123
:1006C0001501B09116010197A109B1098093130199
:1006D00090931401A0931501B0931601809113011A
:1006E00090911401A0911501B0911601892B8A2BCC
:1006F0008B2B91F40E94390380910E0190910F0190
:10070000A0911001B09111018093130190931401F5
:10071000A0931501B09316010000DF91CF91FF91D6
:10072000EF91BF91AF919F918F917F916F915F9169
:100730004F913F912F910F900BBE0F900FBE0F90D6
:100740001F9018950F931F93CF93DF93CDB7DEB70C
:1007500068970FB6F894DEBF0FBECDBF6D837E8362
:100760008F83988729873A874B875C878D819E8105
:10077000AF81B885898B9A8BAB8BBC8B09851A8529
:100780002B853C8569897A898B899C89A901980187
:100790000E943C066D8B7E8B8F8B988F8D899E89F6
:1007A000AF89B88D89839A83AB83BC8389819A8111
:1007B000AB81BC81892B8A2B8B2B29F489859A8567
:1007C000AB85BC8511C089859A85AB85BC858D8339
:1007D0009E83AF83B88789819A81AB81BC818987E9
:1007E0009A87AB87BC87C2CF8D879E87AF87B88B30
:1007F0006D857E858F85988968960FB6F894DEBFE3
:100800000FBECDBFDF91CF911F910F910895CF9370
:10081000DF9300D0CDB7DEB79A83898389819A812F
:10082000892B19F41A82198203C01A8219820000D6
:1008300089819A81892B09F0A8C00E94D4018093F4
:10084000250180912501882F90E0092E000CAA0B2C
:10085000BB0B85349105A105B10508F095C08759FA
:10086000994FFC010C945E060E946700809125015F
:10087000882F90E00E94BE0088C00E94670080918F
:100880002501882F90E00E94BE007FC00E94670073
:1008900080912501882F90E00E94BE0076C00E94C2
:1008A000670080912501882F90E00E94BE006DC0F6
:1008B0000E94670080912501882F90E00E94BE0071
:1008C00064C00E94670080912501882F90E00E94FB
:1008D000BE005BC00E94670080912501882F90E0D8
:1008E0000E94BE0052C00E94670080912501882F9F
:1008F00090E00E94BE0049C00E94670080912501DF
:10090000882F90E00E94BE0040C00E946700809146
:100910002501882F90E00E94BE0037C00E9467002A
:1009200080912501882F90E00E94BE002EC00E9479
:10093000670080912501882F90E00E94BE0025C0AD
:100940000E94670080912501882F90E00E94BE00E0
:100950001CC00E94670080912501882F90E00E94B2
:10096000BE0013C00E94670080912501882F90E08F
:100970000E94BE000AC00E94670080912501882F56
:1009800090E00E94BE0001C00000000089819A81B1
:100990000F900F90DF91CF910895CF93DF93CDB754
:1009A000DEB769970FB6F894DEBF0FBECDBF81E208
:1009B00090E02FEFDC012C9382E290E0FC011082AA
:1009C00084E290E02FEFDC012C9385E290E0FC01C3
:1009D000108287E290E020EFDC012C9388E290E027
:1009E0002FE0FC0120838AE290E02FEFDC012C93C2
:1009F0008BE290E0FC0110828AE191E09D878C8778
:100A000081E090E09A8789878FEF8B878B85809331
:100A10001A0184E690E0A0E0B0E080931B0190937F
:100A20001C01A0931D01B0931E0180911B019091A8
:100A30001C01A0911D01B0911E0180931F01909394
:100A40002001A0932101B093220187E094E09093CC
:100A50002401809323018C859D85FC0181819281F5
:100A6000A381B48189839A83AB83BC8381E090E0C6
:100A70009E838D8333C08D819E81880F991F9E0137
:100A80002F5F3F4F820F931F0B96DC018D919C913E
:100A9000FC0181819281A381B48129813A814B81BA
:100AA0005C812E873F87488B598B9C01AD016E85F9
:100AB0007F85888999890E94A2036A8B7B8B8C8BA6
:100AC0009D8B8A899B89AC89BD8989839A83AB83F5
:100AD000BC838D819E8101969E838D832D813E8175
:100AE00089859A852817390730F229813A814B8107
:100AF0005C812E8B3F8B488F598F6E897F89888DC3
:100B0000998D0E94C8020E94F6020E947200188607
:100B10001F82A2C08F819885880F991F9E012F5F29
:100B20003F4F820F931F0B96DC018D919C91FC012E
:100B300045815681678170858F819885880F991FBF
:100B40009E012F5F3F4F820F931F0B96DC018D910B
:100B50009C91FC0181819281A381B481481759073E
:100B60006A077B0709F047C08F819885880F991F16
:100B70009E012F5F3F4F820F931F0B96DC018D91DB
:100B80009C91FC01218532858F819885880F991F62
:100B9000AE014F5F5F4F840F951F0B96DC018D9167
:100BA0009C91FC018081082E000C990BF90109959C
:100BB000AC018F819885880F991F9E012F5F3F4F51
:100BC000820F931F0B96DC018D919C91242FFC01C9
:100BD00020838F819885880F991F9E012F5F3F4F3B
:100BE000820F931F0B96DC018D919C91FC01158265
:100BF0001682178210868F819885880F991F9E0113
:100C00002F5F3F4F820F931F0B96DC018D919C91BC
:100C1000FC0145815681678170858F819885880F99
:100C2000991F9E012F5F3F4F820F931F0B96DC0190
:100C30002D913C9189819A81AB81BC81840F951F54
:100C4000A61FB71FF90185839683A783B0878F817D
:100C50009885019698878F832F81388589859A8515
:100C60002817390708F456CF000080911201882315
:100C7000E1F3109212014BCFA1E21A2EAA1BBB1B6B
:100C8000FD010DC0AA1FBB1FEE1FFF1FA217B30758
:100C9000E407F50720F0A21BB30BE40BF50B661F6E
:100CA000771F881F991F1A9469F760957095809532
:100CB00090959B01AC01BD01CF010895EE0FFF1F80
:100CC0000024001C0BBE0790F691E02D0994F894C7
:100CD000FFCFC404C404C404C404C404C404C404CE
:100CE000C404C404C404C404C404C404C404C404C4
:100CF000C404C404C404C404C404C404C404C404B4
:100D0000C404C404C404C404C404C404C404C404A3
:100D1000C404C404C404C404BB04C404C404C4049C
:100D2000C404C404C404A904C404C404C404C4049E
:100D3000C404B20434043D0446044F04580461045E
:100D40006A0473047C04C404C404C404C404C40456
:0C0D5000C404C40485048E049704A004AD
:100D5C00000000020000000064010000000001001F
:020D6C00000085
:00000001FF
